:10000000C00A0020590A0000EDEE0100EDEE0100EB
:10001000B7000200EDEE0100EDEE0100EDEE010093
:10002000EDEE0100EDEE0100EDEE0100EDEE010060
:10003000EDEE0100EDEE01002FED0100EDEE01000F
:10004000EDEE0100EDEE0100EDEE0100EDEE010040
:10005000EDEE0100EDEE0100EDEE0100EDEE010030
:10006000EDEE0100EDEE0100EDEE0100EDEE010020
:10007000C5550000EDEE0100EDEE01008109000024
:10008000DFED0100EDEE0100EDEE0100EDEE01000F
:10009000EDEE010065110000EDEE0100EDEE010056
:1000A000EDEE0100EDEE0100EDEE0100EDEE0100E0
:1000B000EDEE01008DE10100EDEE010079EB0100B4
:1000C00003A50200FFA402006DE301000FA50200DA
:1000D00007A5020051EB01000BA50200B9EB0100DE
:1000E00015C50100E9C6010025EC0100EDEE010097
:1000F000EDEE0100EDEE0100EDEE0100EDEE010090
:10010000EDEE0100EDEE0100EDEE0100EDEE01007F
:10011000EDEE0100EDEE0100EDEE0100EDEE01006F
:10012000EDEE0100EDEE0100EDEE0100EDEE01005F
:10013000EDEE0100EDEE0100EDEE0100EDEE01004F
:10014000002370B5404C05468AB0E36318B10088BF
:1001500023600DF0F1F83D4829F080FC3C4E3D4B0A
:10016000304633603C4B736023F0F7FF002130468C
:1001700018F0A4F832A3D3E90023A062C4E906234F
:1001800023F0F6FFD4E90623194310434FF0FF3361
:10019000C4E90601CDE900014FF0FF32A06A29F061
:1001A000C6FC02224FF0FF31A06A29F0C5FC0120F5
:1001B0000CF05AFE4FF4007300222849A06A29F07F
:1001C00014FDB0F5007F38D100239422CDE9073328
:1001D00009933C23CDE9033205939623A06A03A932
:1001E000069318F087F935B3287C0DF0FBFA054625
:1001F000F0B9A06A29F0DAFD0DF09CFA0CF016FEB9
:1002000020B14FF4807000210AF06AFC0CF01EFE51
:1002100020B14FF4006000210AF062FC23F06CFF73
:10022000012018F09FF80E4A0E49A06A23F093FFB0
:1002300028460AB070BDFF20D7E70725F8E700BFC2
:100240000DD5015520000000400F0020690345EC4A
:1002500050220020A1D5000044220020442000208C
:10026000FF4002003F41020010B5054C237833B92E
:10027000044B13B1044800E000BF0123237010BDFC
:100280009011002000000000D4F6020008B5034BD6
:100290001BB10349034800E000BF08BD0000000097
:1002A00094110020D4F60200A3F5803A704700BFF5
:1002B000174B002B08BF134B9D46FFF7F5FF00219E
:1002C0008B460F461348144A121A20F0BCFF0E4BFF
:1002D000002B00D098470D4B002B00D098470020F2
:1002E000002104000D000D48002802D00C4800E059
:1002F00000BF06F0AFF92000290020F061FF06F0F2
:1003000095F900BF00000800000000000000000098
:10031000C00A0020CC0E0020A82800200000000009
:100320000000000001481EF00DBE00BFA8A802009A
:10033000F0B50368A64A23F47F4323F007039342F2
:10034000054685B000F0108109D8A24A93424ED0EC
:1003500002F5A022934200F0FB8005B0F0BD9E4A5A
:10036000934200F09B8102F180729342F5D1B0F884
:1003700005301B2BF1D1C37A984C012B02D0312BC5
:1003800040F074811EF062FD1EF061FD944920680A
:100390001FF0D9FC93481EF0D5FD287900221B21BF
:1003A0000FF0D8FF05460028D7D08F4920681FF0EE
:1003B000CAFC8E4920681FF0C6FC1EF047FD1EF0E7
:1003C00046FD8B4B8B4A8C490093206897231FF086
:1003D000BAFC8A492B468A4A20681FF0B4FC28469A
:1003E00000F006FB874920681FF0ADFCFEE7864F52
:1003F0007A4C38460FF00CFF064608B37A4920685D
:100400001FF0A1FC794920681FF09DFC1EF01EFD25
:100410001EF01DFD764B774A7749009320684B23E9
:100420001FF091FC75493346754A20681FF08BFC1C
:10043000304600F0DDFA734920681FF084FCFEE7C7
:10044000022138780FF01EFF064608B3664920687F
:100450001FF079FC654920681FF075FC1EF0F6FC62
:100460001EF0F5FC624B634A6349009320684F23FA
:100470001FF069FC61493346614A20681FF063FC44
:10048000304600F0B5FA5F4920681FF05CFCFEE7DB
:10049000A02203460090114638780FF0D1FE0646A0
:1004A00008B3514920681FF04EFC504920681FF0E6
:1004B0004AFC1EF0CBFC1EF0CAFC4D4B4D4A4E4987
:1004C0000093206858231FF03EFC4C4933464C4AA9
:1004D00020681FF038FC304600F08AFA494920684D
:1004E0001FF031FCFEE7022138780FF0DFFE0646F0
:1004F00008B33D4920681FF026FC3C4920681FF0E6
:1005000022FC1EF0A3FC1EF0A2FC394B394A3A49EA
:10051000009320685D231FF016FC38493346384AA3
:1005200020681FF010FC304600F062FA3549206860
:100530001FF009FCFEE71EF089FC1EF088FC2B89E9
:1005400032490093EB88AA8820681FF0FCFB04E77F
:100550001EF07CFC1EF07BFC204B2D49186805B07A
:10056000BDE8F0401FF0EFBB1C4C274E1EF06EFCA8
:100570001EF06DFC274920681FF0E5FB0221307852
:100580000FF080FE0546002846D0174920681FF06E
:10059000DAFB164920681FF0D6FB1EF057FC1EF050
:1005A00056FC134B134A14490093206874231FF020
:1005B000CAFB12492B46124A20681FF0C4FB28468A
:1005C00000F016FA0F4920681FF0BDFBFEE700BFE0
:1005D000A0000601A0000100A0000A012C120020CA
:1005E0000AA60200A8A80200E0A5020088A5020051
:1005F00048A602008DA5020093A50200A2A5020054
:100600009FA50200B7A50200CA0C0020C8A50200E1
:10061000E2A50200F6A50200022130780FF046FEA6
:10062000054600283FF499AE3F4920681FF08BFB38
:100630003E4920681FF087FB1EF008FC1EF007FCF7
:100640003B4B3C4A3C490093206879231FF07BFBDD
:100650003A492B463A4A20681FF075FB284600F0BD
:10066000C7F9384920681FF06EFBFEE70BB1302B4D
:100670000BD11EF0EBFB1EF0EAFB334920681FF0A4
:1006800062FB32481EF061FC87E61EF0DFFB1EF0C5
:10069000DEFB2F4920681FF056FB7EE6B0F80560B0
:1006A0001B2E7FF45AAE2B4C1EF0D0FB1EF0CFFB5E
:1006B000294920681FF047FB24481EF049FC0DF132
:1006C0000E0301930DF10D0300938DF80D0001232E
:1006D0002879002231460FF013FE054600283FF42A
:1006E0003CAE114920681FF02EFB104920681FF016
:1006F0002AFB1EF0ABFB1EF0AAFB0D4B0D4A0E4968
:1007000000932068AB231FF01EFB0C492B460C4ABC
:1007100020681FF018FB284600F06AF90949206894
:100720001FF011FBFEE700BFE0A5020088A5020054
:1007300048A602008DA5020093A50200A2A5020012
:100740009FA50200B7A5020017A60200A8A80200F4
:1007500025A602002C1200203EA6020010B5234C54
:1007600001F010F801F030FA236F23F0070343F093
:10077000030323671EF041FD1D4B00209B6A9B076E
:100780005EBF01221B4B9A62D4F8203123F0030391
:1007900043F00203C4F82031D4F8243123F00703D6
:1007A00043F00203C4F82431D4F8403123F00303AA
:1007B00043F00203C4F84031D4F8603123F003035E
:1007C00043F00203C4F86031D4F8403223F003034D
:1007D00043F00203C4F84032D4F8003223F0070398
:1007E00043F00203C4F8003210BD00BF0080005087
:1007F00000C0005000E0005008B501F07BFD01286A
:100800000ED1134B04205A6E4FF48023114952032A
:1008100058BF114A4B6601F51041086258BF536634
:1008200003F0B8FB1EF01FFB03F042FB03F09CFB40
:1008300003F060FB1FF033FAFFF790FF03F048FB73
:100840001EF008FB00F0C8FCBDE8084003F0F2BF52
:10085000008000500090005000A0005030B5224DA4
:1008600095B00DAC0FCD0FC495E80700032384E8C5
:1008700007008DF84D3029231C4A1D49CDE902237C
:100880001C4B1024CDE904134FF480732246002141
:1008900009A8069320F0D7FC4FF4A020164B07A917
:1008A000CDE907030F238DF82430144B0DAA0A93CA
:1008B00020230B9301238DF83130114B1148009305
:1008C00002AB8DF8254003F099FD04469DF83230C7
:1008D0004FF4E130002B0CBF032100211EF0F7FA8A
:1008E000204615B030BD00BF8CA8020000000650A5
:1008F00000050006000800072400065078270020A5
:10090000AC11002008120020831E012B10B512D854
:10091000012910D8114B04221B6905210020C3F3C3
:10092000401301F02BFB0E4B1B681868A8B1BDE803
:100930001040436A18478B1E012B0CD801280CD895
:10094000BDE810400022054B05211B691046C3F38A
:10095000401301F013BB0129E5D910BD00C00350BD
:10096000C80A002008B50449044804F027F8BDE887
:100970000840FFF773BF00BFC00A0020001200202C
:1009800001481FF04EBB00BF08120020014B1A6A3D
:10099000186810470812002001481EF0D0BA00BFA6
:1009A000A8A80200012208B5074B1A700022074BC5
:1009B0001A700422064B1A701F22064B1A7003F09D
:1009C00013FB054B186008BDCE0C002098270020B3
:1009D000CF0C0020D00C00202C120020024B034929
:1009E00018681FF0B0B900BF2C120020C0A8020088
:1009F00070B50C4C0C49064620681FF0A4F903F0B2
:100A0000F3FA0546206803F0E3FA3046FFF7E6FF05
:100A1000284603F0DDFA20680449BDE870401FF065
:100A200092B900BF2C120020C2A80200C4A8020084
:100A300007B508201EF06AFA02238DF80030054B36
:100A4000684601931EF013FA082003B05DF804EB2A
:100A50001EF068BA006A181008B500F02DF8124BA5
:100A600012498B4212D30020114B12498B4218D3EA
:100A7000FFF71EFC186850F82240586840F82240E2
:100A8000013298688242F5D30C33EAE70022F8E796
:100A90001C6844F8220001325C68A242F8D3083393
:100AA000E4E70022F8E700BFDCF60200E8F6020007
:100AB000E8F60200E8F602004FF400414FF0FF3084
:100AC000124B134A10B59A60D3F8882042F4700292
:100AD000C3F888200F4A916601F1884101F5005260
:100AE00010664FF6DF7050660220C3F8D000BFF3E7
:100AF0004F8FBFF36F8F08244FF440330648C0F880
:100B00008041D36004600B6110BD00BF00ED00E0C8
:100B1000000000000090005000E100E0014B186868
:100B2000704700BFD00A0020084B1B6F03F007037B
:100B3000022B04D0032B05D0012B05D0FEE7044B7C
:100B400018687047034BFBE703487047008000506C
:100B5000D00A0020D40A0020002D310108B5FFF78B
:100B6000E3FF054B1B6FC3F303330133B0FBF3F01B
:100B7000024B186008BD00BF00800050CC0A002066
:100B80000048704700B4C404014B1868704700BFA8
:100B9000D40A0020054B1860054B1B6F03F00703B8
:100BA000032B01D1FFF7DABF704700BFD40A002042
:100BB0000080005000487047002D3101014B18683B
:100BC000704700BFD80A002005490A681318054875
:100BD00083428CBF4FF0FF320B601046704700BF5E
:100BE000DC0A00200080002008B501213A2000F036
:100BF000EDFC032101230422002001F0BFF90020B5
:100C00001EF038FB0122214B4FF46070C3F84424DE
:100C10001EF02BFA1E4B00F5D520D3F8F02000F281
:100C2000FC4042F00102C3F8F020D3F8FC2042F06F
:100C30008072C3F8FC20174AA3F55D431A60164B77
:100C40000222B0FBF3F0154B01381861C3F8F02015
:100C50004FF48072C3F804234FF06043104A002021
:100C6000C3F8B02F0F4AC3F8802ED3F8002E42F4F9
:100C70008072C3F8002EFF2283F82020D3F8002EC4
:100C800022F48072C3F8002E08BD00BF00D00350CC
:100C900000ED00E0FF030040F8590D00000004E003
:100CA00055CEACC5090001004FF06043D3F8802E4B
:100CB00030B5D20715D501240B4D8440D5F8FC2062
:100CC00042F08072C5F8FC20D3F8002E2243C3F80E
:100CD000002E53F82020002AF0D003F82010002026
:100CE00030BD1120FCE700BF00ED00E010B501228F
:100CF00043780178847830209A40054B00FB01331B
:100D00001CB942F210015A5010BD41F21001FAE72D
:100D100000C0035010B50122437801788478302058
:100D20009A40054B00FB01331CB941F210015A50A7
:100D300010BD42F21001FAE700C003502DE9F04F58
:100D40009A46564B85B01B7806460F461546DDF889
:100D50003C909DF844B0DDF85080002B00F08D8071
:100D6000072A00F28C800E9B002B00F08880B9F1DE
:100D7000000F00F08480129BB3F5006F7FDC012828
:100D800002D1109B002B7AD0454B03EB05131B7B44
:100D9000002B76D0434C10220021684620F053FAF5
:100DA00004EB45141022002F59D13946204620F07B
:100DB0004AFA43F210036380BBF1000F03D1E378DA
:100DC00043F00303E370374A0E9B02EB451CCCE96A
:100DD0000193129B6901013BC3F30A009DF84C305B
:100DE000012E03F003034FEA836343EA001E5358C6
:100DF0002D48CDF800A000EA03004EEA000353504E
:100E000041D113230CF1100ECCF80C309CE80F00EC
:100E10008EE80F006FF00301DCF81C20109B61F3DB
:100E20009F02012FCCF81C20CCF8143003D1CCF851
:100E30001890CCF804300027194A290102EB051359
:100E400042F80180159A28465A60694622469F60FA
:100E50005E7301F033F9384605B0BDE8F08F00212C
:100E6000204620F0F0F94FF444736380BBF1000F8B
:100E7000A9D1E37843F03003A4E70C48ECE70C4831
:100E8000EAE70C48E8E7B8F1000FD4D19CF802304B
:100E900068F304138CF80230CDE700BF99270020D7
:100EA00030120020B01200200F80FFF3028000F00B
:100EB000018000F0078000F038B5124B05461B7822
:100EC000DBB1E0B11EF0B5F90F4A00231146147BE7
:100ED00054B92B6001251A0101EB03131D738C50CB
:100EE0001EF0ADF9204638BD0133082B02F1100287
:100EF000EDD11EF0A4F90548F5E70548F3E70548EC
:100F0000F1E700BF9927002030120020048000F094
:100F1000028000F0018000F013B51EF08AF9002372
:100F20000B4A147B7CB90133082B02F11002F8D173
:100F3000019001F065F8074B01981C701EF07FF9D5
:100F4000204602B010BD1EF07AF90348F9E700BF51
:100F50003012002099270020058000F00D4B10B5BD
:100F60001B78044693B1072812D81EF062F90A4B89
:100F700003EB04131A7B2AB100241C731EF05FF9E3
:100F8000204610BD1EF05BF90448FAE70448F8E774
:100F90000448F6E79927002030120020068000F070
:100FA000028000F0018000F0154B13B51868002393
:100FB00001908DF804301EF03CF9124B1C7824B1DE
:100FC0001EF03DF9104802B010BD01221A701EF04B
:100FD00036F90E4B01A81C731C7783F82C4083F85C
:100FE0003C4083F84C4083F85C4083F86C4083F8C5
:100FF0007C4008238DF8073001F02EF82046E2E708
:10100000C7A8020099270020038000F030120020BA
:101010000A4A08B512785AB107280BD8084A02EBD9
:1010200000131B7B43B1002101F008F8002008BD2C
:101030000448FCE70448FAE70448F8E79927002049
:1010400030120020028000F0018000F0078000F0E4
:101050000A4A08B512785AB107280BD8084A02EB99
:1010600000131B7B43B1012100F0E8FF002008BD05
:101070000448FCE70448FAE70448F8E79927002009
:1010800030120020028000F0018000F0078000F0A4
:101090000A4A08B5127852B107280AD8084A02EB62
:1010A00000131B7B3BB101F057F8002008BD054839
:1010B000FCE70548FAE70548F8E700BF9927002054
:1010C00030120020028000F0018000F0078000F064
:1010D0000D4B1B7893B1072812D889B10B4B03EB4A
:1010E00000131B7B73B10A4B1A6D012303FA00F046
:1010F00010401ABF00200B700870704705487047F9
:101100000548704705487047992700203012002095
:1011100000000450028000F0018000F0078000F021
:101120000B4A10B512780C4662B107280CD859B199
:10113000084A02EB00131B7B43B101F01FF820703B
:10114000002010BD0448FCE70448FAE70448F8E72B
:101150009927002030120020028000F0018000F06A
:10116000078000F02DE9F843174B1F6D5B6D1F40A2
:1011700000D5FEE701260025144CDFF85480DFF887
:101180005490374217D02368C8F850609BB1A168CB
:10119000284601316268A1609847637B012B0AD120
:1011A00048B909EB45131A7B60F341021A731A7FA1
:1011B00060F341021A770135082D4FEA460604F123
:1011C0001004DED1BDE8F883000004503012002086
:1011D00000200450B0120020024B1968024B18681E
:1011E00016F080BCE40A0020E00A002037B5920027
:1011F00004460D46019229F0AFF9431C0BD060B9AB
:1012000029462046019A1FF0E7FF0028044808BF3E
:10121000002003B030BD0348FBE70348F9E700BFF7
:1012200010E000F021E000F024E000F010B50446EA
:1012300029F0A2F9431C10D088B901F063F82346C5
:1012400020F003002044984201D1002010BD53F843
:10125000042B0132F7D00348F8E70348F6E70348C8
:10126000F4E700BF0EE000F021E000F024E000F021
:1012700008B51DF0D7FF014B186008BDF01900201C
:10128000014B18681DF0D2BFF0190020044BD3F8B1
:101290008420D206FBD4D3F88400C0F381107047B9
:1012A0000040005038B5104B0546D3F820310C46AD
:1012B00003F00303022B0BD0032B0DD0012B0FD116
:1012C000FFF72CFC052305B1286004B1236038BD6D
:1012D000FFF75AFC0323F6E7FFF76CFC0223F2E763
:1012E00001230020EFE700BF0080005073B50D46DA
:1012F00000210E4B0191D3F88041064604F003040F
:10130000012C09D0022C0CD00C460EB1019B33608D
:1013100005B12C6002B070BD01A8FFF7C3FF0F2418
:10132000F3E7FFF747FC0190EFE700BF00800050B4
:1013300038B5184B0546D3F824010C4600F00700D9
:10134000062805D8DFE800F0230B131B1F0F17003A
:101350000023184605B1286004B1236038BDFFF7AB
:10136000DDFB0523F6E7FFF7D9FB0623F2E7FFF7DE
:101370000BFC0323EEE7FFF707FC0423EAE7FFF784
:1013800019FC0223E6E71DF0B2FD0723E2E7012383
:10139000E0E700BF0080005038B5104B0546D3F899
:1013A00040310C4603F00303022B0BD0032B0DD06E
:1013B000012B0FD11DF09DFD092305B1286004B15B
:1013C000236038BDFFF7FAFB0823F6E71DF094FD14
:1013D0000B23F2E701230020EFE700BF008000505D
:1013E00038B5144B0546D3F800020C4600F0070050
:1013F000042804D8DFE800F01B0A0E1216000023B0
:10140000184605B1286004B1236038BD1DF071FD98
:101410000923F6E7FFF7D2FB0823F2E71DF06CFD86
:101420000B23EEE7FFF79AFB0E23800AE9E701237F
:10143000E7E700BF0080005038B5104B0546D3F8F1
:1014400040320C4603F00303022B0BD0032B0DD0CC
:10145000012B0FD11DF04DFD092305B1286004B10A
:10146000236038BDFFF7AAFB0823F6E71DF044FD13
:101470000B23F2E700231846EFE700BF008000507F
:1014800038B5104B0546D3F860310C4603F0030322
:10149000022B0BD0032B0DD0012B0FD11DF029FDFA
:1014A000092305B1286004B1236038BDFFF786FB2E
:1014B0000823F6E71DF020FD0B23F2E701230020AF
:1014C000EFE700BF0080005010B40D4C0B46D4F87D
:1014D000204204F00304012C0AD0022C0CD008B1E5
:1014E000002101600BB100221A605DF8044B7047C7
:1014F0005DF8044BFFF7D6BE5DF8044BFFF74CBF19
:101500000080005038B50C4605461DF08BFE064B9A
:101510009A6A82EA040101EA050454409C62BDE82B
:1015200038401DF083BE00BF00C00050B0F5207FE2
:101530001FD009D8B0F5007F15D003D868B1B0F539
:10154000C07F0AD000200CE0B0F5607FFAD10B4BD1
:10155000D3F88000C0F3011003E0084B186FC0F30C
:10156000033001307047054BD3F89000C0F304609E
:10157000F7E7024B186FC0F38020F2E700800050BD
:101580004FF400320E4B014610B500209A66FFF76B
:10159000CDFF41F6713248430A490B4B88428CBF5C
:1015A0004FF480100020DC69DA639A6822F440125C
:1015B00002439A60E20344BF0022DA6310BD00BF19
:1015C00000900050005A620200000350420910B51A
:1015D00010D0012A10D00B4B0B4C022A18BF234607
:1015E00000F01F0051B103F58053012202FA00F010
:1015F000186010BD1346F3E7044BF1E703F5005301
:10160000F3E700BF688000506082005064800050A3
:1016100008B580201DF029FD034B98429EBF4FF472
:101620008032024B1A6708BD005A620200A00050C7
:101630001FB50023B0F5807F019377D028D83828D4
:1016400000F094800BD82438092810D809280ED827
:10165000DFE800F0676767670D0D620D377D522880
:101660005FD008D83D283BD03E2800F08480019808
:1016700005B05DF804FB8028F9D1414B1B6F03F0E6
:101680000703013B032BF2D8DFE803F044413F6C32
:10169000B0F5D06F5BD019D8B0F5A06F66D00AD87E
:1016A000B0F5806F3DD0B0F5906FE0D1002001A97A
:1016B000FFF73EFEDBE7B0F5B06F2DD0B0F5C06FA1
:1016C000D5D1002001A9FFF767FED0E7B0F5006F84
:1016D000ECD00AD8B0F5E06F4DD0B0F5F06FC6D1C0
:1016E000002001A9FFF7CCFEC1E7B0F5086FBED11D
:1016F000234BD3F8003103F00303022B2CD0032B30
:101700002ED0012B30D1FFF73FFA032300E0052351
:101710000193ACE70223FBE7002001A9FFF7E6FDF8
:10172000A5E7002001A9FFF7BDFDA0E702934FF058
:10173000E0231B695B0705D5FFF710FA0C23039321
:10174000039BE5E703A902A8FFF726FEF8E70020C0
:1017500001A9FFF745FE8AE7FFF730FA0823D7E72C
:101760001DF0C5FB0723D3E70123D1E7002001A922
:10177000FFF7AAFE7BE7002001A9FFF75DFE76E7F1
:10178000008000504FF40022034B5A66012203F5FB
:1017900080439A62704700BF0090005008B5FFF781
:1017A00047FF082811D00938012811D84FF400123A
:1017B000094B4FF6FF705A6603F5D8335B6A13F096
:1017C000010F18BF4FF4FA7008BD044B1888FBE7EF
:1017D0004FF6FF70F8E700BF00900050B80C0020F3
:1017E00070B504468020FFF723FF032800F08280B5
:1017F0004FF40022444B02215A6645F60E03434A39
:10180000C2F88030424B9962012103F580539962FE
:10181000936DD903FCD4D4E900131B0543EA01639B
:10182000E17B94F822500B43217B94F8236043EA38
:101830000143617B43EA0133A17B43EA81131361D6
:101840009169D4E904031B0643EA806301F0004177
:101850000B43A17EE07E0B43217E43EA0143617E80
:1018600043EA01239361E369126A002B0CBF002154
:10187000082122F00D0242EA030242EA8002234BD1
:1018800042EA01021A6294F820204FEA421232D151
:10189000986A94F8211020F0330042EA01120243C2
:1018A00042F001029A621B4A996D32EA0101FBD1B2
:1018B000022217498A621A659A6D5200FCD418698F
:1018C000A26820F4700040EA02504FF00042186114
:1018D0000F4B9A611DB9022203F580539A6216B923
:1018E00001220D4B9A6294F824301BB1074B0B4A2E
:1018F000C3F8802070BD996A21F0330131430A4357
:1019000042EA4502EEE700BF0090005000C00050E0
:1019100000D000500300014000E00050F1A7FFFF9D
:101920001E4B13B5996A9A6D12F4803F18BF0124BB
:101930001B4A18BF9462022494629B6DDB0303D59B
:10194000164A936D9C07FCD50222154B134C1A6561
:10195000A36D5B00FCD4134BA26993F9003022F411
:101960007F020344000222F47F4280B283F3080323
:10197000104340EA0340A06102200191FFF7C2FD3D
:10198000A36D019913F4803F05D0012002B0BDE89A
:101990001040FFF7B7BD02B010BD00BF00C000503F
:1019A00000D000509A270020014B93F900007047A7
:1019B0009A27002001221248124B816A9A62826D96
:1019C00002F00302032AFAD102229A621A650C4B32
:1019D0009A6D5000FCD401209A6D0A4A10659A6DE8
:1019E0009207FCD4064B9A6D9007FCD50220054A5D
:1019F00010659A6D9207FCD50320FFF783BD00BFE9
:101A000000C0005000D00050F0B5D0E901434FF4C1
:101A100080061A4A4178057856664FF4D156022757
:101A200002F5B8325662164E4F2977604FF0010723
:101A300028BF4F2106F5805677601669F603FCD45F
:101A400041EA052151611B01417B43EA04230B4319
:101A5000017B43EA41039360C37B817B1B0143EA23
:101A60004113417C0B43017C43EA41035360837C77
:101A700013B16FF4D1535362F0BD00BF009000501A
:101A800000100250014B1880704700BFB80C0020B6
:101A9000014B1880704700BFB60C00204FF40012B5
:101AA00008B5184B5A660223174A5360936813F41B
:101AB0008033FBD1012822D1FFF766F8134B9842FF
:101AC00015D003F5122303F5F863984213D0104B99
:101AD00000EB8002400AB3FBF0F0520A0A4BDA62D4
:101AE000012218635A620022074B5A6008BD45F66E
:101AF0007A10084AF2E745F61A00074AEEE7536201
:101B0000F1E700BF009000500040025000F0490291
:101B100064666666D8B80500BBCF0500B0F5207FC7
:101B200010B50C4642D008D8B0F5007F33D003D8AA
:101B300088B1B0F5C07F0ED010BDB0F5607FFBD18D
:101B40001F4B013CD3F8801021F0300141EA04140E
:101B5000C3F88040F0E71DF080FA1DF049FB4FF418
:101B60008031184A164B1167196F013C21F47041FE
:101B700041EA04341C67FEF7F1FF0446FFF786FBD9
:101B8000C0F1020120461DF02DFB00F02DF8BDE84C
:101B90001040FFF73DBD0A4B013CD3F8901021F0F7
:101BA000F85141EA0464C3F89040C5E7044B013C96
:101BB000196F21F4806141EA84241C67BCE700BFEF
:101BC000008000500090005008B50121022000F074
:101BD000D7F81DF042FA1DF00BFB4FF48032014B99
:101BE0001A6708BD0090005008B54FF4C0701DF092
:101BF0003CFABDE80840044988428CBF022101211B
:101C00004FF42070FFF78ABF80F0FA02034B586848
:101C1000C0F30800003818BF0120704700ED00E055
:101C2000194B10B51B6873B3184A5268012A2AD0A1
:101C3000174A8020C2F80031FFF7FAFC05281FD1AF
:101C40004FF4C070FFF772FC0128044604D1022152
:101C50004FF4C070FFF762FF07220E4B1A6101229A
:101C6000A3F580535A60094A1369DB07FCD5012CA0
:101C700009D12146BDE810404FF4C070FFF74EBFB8
:101C80000122054B5A6010BDA41A002000C001506B
:101C90000080005000E0015000D0015000224FF4BD
:101CA0000031074B1A60074A516602F598325268B4
:101CB000012A02BF044AD2F800211A60704700BF0F
:101CC000A41A00200090005000800050044A41787F
:101CD000536F23F4407343EA01235367704700BFF7
:101CE0000040005010B5044608B1FFF7D7FF0E4A78
:101CF000136943F00403136103F060F81DF0A2FAC6
:101D00001DF090FA28F030FC1DF090FA1DF09BFABF
:101D100003F068F81CB1BDE81040FFF781BFBDE8D3
:101D20001040FEF71BBF00BF00ED00E010B50446F9
:101D300008B1FFF7B3FF0C4A136943F004031361C2
:101D400003F03CF81DF06EFA28F00EFC1DF06EFA60
:101D500003F048F81CB1BDE81040FFF761BFBDE8D3
:101D60001040FEF7FBBE00BF00ED00E0034A017922
:101D7000D36E23F030030B43D3667047004000500E
:101D8000F8B504461C4BD3F88420D106FBD4D3F815
:101D90008430C3F381139C422CD0FEF7C5FE012C86
:101DA000064602D121461DF01DFA1DF03BFA4FF008
:101DB0000072124B07465A6620461DF049FA4FF44E
:101DC00080630D4D621E93402B676B6E9A0103D4A6
:101DD000D5F884309B060AD538461DF027FA022C28
:101DE00008D13046BDE8F84000211DF0FBB9D5F818
:101DF0008430EAE7F8BD00BF0040005000600050AA
:101E000007B518B90191FEF78FFE0199064B1B78B3
:101E100043B1064B984205D8012003B05DF804EBAE
:101E2000FFF7AEBF0220F8E79B270020005A6202AE
:101E30000278034B012100201A70FFF7E1BF00BFB9
:101E40009B2700204FF00042012138B5274B5A66EE
:101E500003F50C2359604AF6CD33254A556C1364BB
:101E60000D4048BB94680C4009D0224B224C99602D
:101E7000D36ADB0710D4A0420CD14FF0FF3401220B
:101E80001C4B5A6015B11A4B1C4A1A6427F069FEA4
:101E9000204638BD0130EBE7A0424FF0FF3418BFB9
:101EA0000024ECE70131D36A13F0080307D0814224
:101EB000F8D16FF00104E5E700210F48F3E7814214
:101EC000F7D020210B4A51620121A2F58052916086
:101ED0000749094A486A800603D49342E9D001338E
:101EE000F8E79342E5D00024CCE700BF0090005013
:101EF000004009500060095040420F003254FFFF7B
:101F00004FF0004238B5194B194C5A66012203F5BF
:101F10000C235A604AF6CD33656C23644378154030
:101F200093401343134AD363A368827823F0740366
:101F300043EA0213C278002A14BF0422002213438A
:101F4000A3600279837943EA022323614279C3794A
:101F500043EA022363610078FFF774FF0DB1064B7B
:101F6000236427F0FEFD012038BD00BF0090005023
:101F700000400950004000503254FFFFF8B50446BD
:101F80000D461F4616464AB101238B403021194A9F
:101F900001FB0022FFB141F21001535004EB440356
:101FA000072D4FF00F014FEA031317D8A80006FAC8
:101FB00000F28140104818441DF04BF956B9012138
:101FC00030230C4801FA05F503FB040077B141F218
:101FD0001003C550F8BD42F21001DEE7A5F108007C
:101FE000800006FA00F281400448E4E742F2100360
:101FF000EFE700BF00C0035004C003500CC0035003
:102000004FF400120B4B10B5C3F88020BFF34F8F75
:10201000BFF36F8F0024FF22074B21465C65202011
:102020009A625C60FFF7D2FA2146BDE81040212099
:10203000FFF7CCBA00E100E000000450044A054B71
:10204000002918BF1346012202FA00F018607047F9
:10205000402004504010045010B5012104462020B7
:10206000FFF7B4FA01212120FFF7B0FA0122114B4A
:102070005A60227812069A606178A27842EA014298
:102080009A61FF229A6200229A631A644FF000421A
:102090005A654FF0FF324FF4001103F500531A65F3
:1020A000054AC2F88011E3781B01DBB282F81533D0
:1020B000116010BD0000045000E100E02DE9F04186
:1020C00001250C46C3B2DFF888E0D1F800809D40BE
:1020D0008F7ACB7A94F80DC0097BCEF850500EF56C
:1020E000005E4EF820804FF0300E184E1B050EFBA0
:1020F000006043EA074343EA415322F00302C0F879
:1021000060C0C36502671DF094F8736D2B4373655F
:10211000237A13B1336C2B433364637A13B1B36BFB
:102120002B43B3632279A37943EA0243084A9361BC
:102130006179E37943EA014306498B61034B5563B7
:102140009D64BDE8F0411DF07AB800BF0000045066
:10215000002004500010045010B50124C0B2844087
:102160001DF067F8044B5A6D22EA04025A659C621E
:10217000BDE810401DF063B80000045010B5012404
:10218000C0B284401DF055F8074BDA6A224209D1EB
:102190005B6B34EA03030CBF012400241DF04FF8ED
:1021A000204610BD0024F9E7000004504FF400322F
:1021B000054B9A6641F6713203F51C33DA6301224E
:1021C00003F50053DA6070470090005041F6713219
:1021D0000121064BDA6303F50052D1600022DA6375
:1021E0004FF40032A3F518339A667047000003508D
:1021F000CB784A7810B55B010C7843EA82030A7900
:10220000234343EA02130C22424302F1B042136318
:10221000012C02BF8A78024B43F8202010BD00BF7A
:10222000E880035008B54FF0B0435A6802B960B176
:102230005B680BB11DF01FF84FF0B04130B10120C9
:10224000074B58601DF017F8C86008BD1DF013F863
:102250000223CB601DF00FF80122024B5A60F4E715
:1022600000100058002000584FF0B0435B6870B574
:102270000BB11DF000F80121104B457859608378AF
:102280000679002BC37814BF02240024002B14BF4E
:10229000042200224379DB0043EA06132B43234345
:1022A00013434FF0B0429360054B59600378002B05
:1022B00014BF0B460223D36070BD00BF002000583E
:1022C000001000584FF48032064B5A6603F5E6239F
:1022D0005B69C3F38512827003F03F021B0B4270EF
:1022E0000370704700900050014B986CD96C704798
:1022F0000080E00F024B1868C0F30740704700BF32
:102300000080E00F0120034B9B680A3303F01F039A
:10231000984070470080E00F70B5054616461C4691
:1023200021B94FF420701CF0A0FE0146402C1BD0B8
:1023300003D8DCB1202C1BD070BD602CFCD1042351
:1023400003FB06F2560806EB4113B3FBF2F3094A0E
:10235000203B02EAC303AA6822F06002AA60AA68CE
:102360001443AC60EB61E7E70623E9E71023E7E7F6
:102370000823E5E7F8FF7F00012200F5805310B540
:102380005A6040F6AA6341F20502436100230E49F8
:102390008360C365C26000F500520361C361C3641A
:1023A00091640A498365884202D0094CA04207D152
:1023B0008842036502D0064B984201D10023436551
:1023C0000123536010BD00BFFFFF010000C0055096
:1023D0000000065070B50D46FFF7CEFF012300F553
:1023E00080567360AB7C04461BB1836843F0804326
:1023F0008360EB7C5BB1354A2B7D944245D1A2F5DD
:102400001032C2F88C31E36D43F08003E3652A8A11
:102410006B7B20461343EA891343E3602B7BD5E9AA
:102420000112FFF779FF6B7D1BB1A36843F4803382
:10243000A360AB7D1BB1A36843F40043A360EB7DB5
:102440002A7E1B07120502F4E00203F0E043134367
:10245000A365697E1D4A8B1E012B1D4B1FD894421C
:102460001BD002F5804294420CBF01224FF0FF3294
:1024700003EB4213022041F21C620329985020D141
:102480000423F3652B78636170BD124A944204BF44
:10249000A2F52032C2F89C31B5E70022E8E7944269
:1024A0000DD00C4A94420CBF01224FF0FF3203EBD7
:1024B0004213022042F21C6201299850DFE70022F9
:1024C000F5E7042204F50053DA65DBE700C00550A8
:1024D00000C003500000065038B50446054D27F0F3
:1024E00067FB0FCC0FC594E8030085E803000020CC
:1024F00038BD00BFA81A002047F6FF739A42F0B516
:1025000066D0012966D8344DCF0015F8313005EB7F
:10251000C100012B847813D10025C3781B1B9D4279
:1025200002D3E018C0B2F0BD591B4668A3EB5101BD
:1025300036F911609642D4BF0D4601F1FF33EEE744
:1025400040680028EFD0B0F90030934204DBB0F9C6
:1025500002309342B8BF134682883D44FF2A19BF18
:10256000C8214FF0280CB0F90610B0F908C0A1EB53
:1025700003020CBF0126002692FBFCF26D78324468
:1025800012B2954201DD002A01DA6A1E12B24FF43E
:102590007A7700EBC206F188B668013213FB01615D
:1025A00012B221EAE1715C319542B1FBF7F104DD31
:1025B00000EBC206B6888E42EBD200EBC20232F8C4
:1025C000040C884228BF0846A04238BF2046A9E72D
:1025D000FF20A8E70020A6E7A81A00200129F0B5EF
:1025E00053D82B4800EBC10410F83110636801295F
:1025F0000FD1E078A478904294BFC4EB0001C4EB03
:102600000201001BCAB28242C8BF002233F9120085
:10261000F0BD002B39D0A178914202D3B3F902006A
:10262000F6E7E178B3F900009142F1D9998864782E
:10263000A1F1FF06013C714203F10405E4B27141CE
:1026400003F10C071FFA82FCCEB2B44216D805EB98
:10265000C1014FF47A756A43B1F902404968521AD0
:1026600004EBD47102EB610292FBF4F29042CFDBF7
:10267000B3F902009042CBDC10B2C9E737F831E081
:102680004E1CE645E3D33146DEE70248C0E700BF13
:10269000A81A00200080FFFF08B50448FFF71CFFC0
:1026A000BDE80840012027F087BA00BF40B2020011
:1026B00000487047BA0C00207FB50222084B094938
:1026C000CDE901234FF00073CDE90313052301A9E0
:1026D0004FF0FF30059327F0A5FA07B05DF804FB33
:1026E000006A1800000204001B0603F0706300F08B
:1026F0000F000902034301F47061120402F4702216
:102700000B431343014A1360704700BF0020025C73
:1027100060B5054619B10139B1F5806F10D2094E87
:10272000F06810F48030FBD143EA0121120741EA3E
:10273000050302F08052134343F00043736060BD11
:102740000120FCE70020025C0122054B9A60DA6858
:10275000D203FCD4D86820F00F000004000C7047AE
:102760000020025C014B1868704700BF0040025C0B
:10277000014B5868704700BF0010025C014B186B9A
:10278000704700BF0010025C014B1868704700BF23
:102790000010025C014B9860704700BF0010025CA3
:1027A000014B1864704700BF0010025C014B586475
:1027B000704700BF0010025C014B5863704700BFB8
:1027C0000010025C0022014B1A6070470010025C8E
:1027D000024A136843F00103136070470010025C63
:1027E00043F20402014B1A60704700BF0010025C04
:1027F000024A136843F03003136070470010025C14
:10280000044B1A6842F480721A601A6822F48072CB
:102810001A6070470010025C024A136843F4806338
:10282000136070470010025C034A136823F470239E
:1028300043EA0040106070470010025C044B1A69C4
:1028400002605A6942609A698260DB69C3607047BE
:102850000010025C0268044B1A6142685A61826887
:102860009A61C268DA6170470010025C024B1A6B11
:10287000D207FCD4186270470010025C024B186B40
:1028800000F00E00704700BF0010025C82B01FB560
:1028900007930A9B04AC8B4228BF0B4604E9070050
:1028A0001048D100079948BF03330160099948BF18
:1028B00023F0030323F0704301F0E041194341F09A
:1028C00000518160002102F0E042019C134343F07B
:1028D0000053C16004618361416304B0BDE81040EE
:1028E00002B070470000025C3F22034B1A631022C3
:1028F000DA6103229A6370470000025C024AD36BDC
:102900009B07FCD4704700BF0000025C034B986A31
:1029100010F0240018BF0420704700BF0000025CC4
:1029200008B5FFF7F3FF064BDB6B23F47F4323F07F
:10293000EF0303431EBF0122024BC3F8FC2F08BD67
:102940000000025C00F0FF3F032208B5054B186051
:1029500019615A63FFF7C8FFFFF7D0FFBDE80840D1
:10296000FFF7DEBF0000025C42680346182A10B57C
:102970000AD0202A1DD0102A2BD1174AD2F80424BD
:10298000D4010AD4012013E0134AD2F804249001A0
:10299000F8D50A6842F008020A6010481A688242B4
:1029A0004FF000000ED10A6842F040020A60586001
:1029B00010BD094AD2F804245201E3D50A6842F056
:1029C0000402E9E7064CA242F2D10A6842F0800212
:1029D000ECE70720ECE700BF0000025C9C2700202A
:1029E0009D2700200B4607B50749D1F80414C907F5
:1029F00008D5002100920246084600F05BF803B0BB
:102A00005DF804FB0120FAE70000025C1346064A69
:102A1000D2F80424D20504D50A46014600201CF051
:102A200046BE0120704700BF0000025C13B5084C91
:102A3000D4F80444E40508D5009313460A46014639
:102A4000002000F061F802B010BD0120FBE700BFDC
:102A50000000025C13B5084CD4F80444E40508D522
:102A6000009313460A460146002000F071F802B0B8
:102A700010BD0120FBE700BF0000025C70B50446FA
:102A80000D4616468CB00A4A09AB07CA83E8070010
:102A90001A462146CDE90563CDE90333CDE901337B
:102AA00000954FF480301CF026FD0CB070BD00BFC7
:102AB000F0A80200F0B51C465B6815468DB01A07F9
:102AC000129E1AD1CBB17268934216D10C4B0D4AAB
:102AD00053F8217009AB07CA83E807001A46294654
:102AE000CDE90533CDE90333CDE90163009447F423
:102AF00080701CF000FD0DB0F0BD0720FBE700BFAB
:102B0000FCA80200F0A80200F0B516465A688DB085
:102B1000102A0D46129F15D17A68102A12D10A4A3E
:102B200009AC07CA84E8070022462946CDE90547D3
:102B3000CDE90344CDE90144044800961CF0DBFCD8
:102B40000DB0F0BD0720FBE7F0A802003000010047
:102B5000F0B516465A688DB0102A0D46129F15D151
:102B60007A68102A12D10A4A09AC07CA84E8070019
:102B700022462946CDE90574CDE90344CDE9014457
:102B8000044800961CF0B7FC0DB0F0BD0720FBE731
:102B9000F0A802001000010082B070B586B0149D4C
:102BA00003AE202D86E807000B9359D805EB85036B
:102BB0008B4203D006236B438B4253D10C9BAB4219
:102BC00050D10F9BB3EB450F4CD1129A934249D190
:102BD000012229462220159BFFF79AFD044630BBAF
:102BE000034606220E210C20FFF77EFD0123CDE9CE
:102BF00000332B4696E807001CF01AFC0E230BAAA4
:102C0000009307CA2B461CF05EFB0C23164C009366
:102C10000EAA2B4607CA1CF086FB636823F07F03CD
:102C200043F026036360FFF78FFD30B10624204692
:102C300006B0BDE8704002B07047636823F07F03C0
:102C400043F022036360FFF77FFD04460028EDD1C7
:102C5000062311AA009307CA2B461CF097FBE6E750
:102C60000124E4E70724E2E70020025C70B598B095
:102C7000002843D02C4C08AD0FCC0FC50FCC0FC58E
:102C80000FCC0FC594E80F0085E80F006D4604AE29
:102C900004F1100320340FCB85E80F0094E80F00F7
:102CA00086E80F00FFF7ACFD0420FFF7BDFDFFF73E
:102CB00097FD3046FFF7CEFD002408AE56F8040B12
:102CC0000134FFF7D3FD102CF8D1FFF751FD032895
:102CD000FBD90024FFF776FD2646FFF743FD55F8A4
:102CE000043B01365840042E44EA0004F5D12CB1CF
:102CF000012206200D4B1A7018B070BDFFF780FD41
:102D00000820FFF747FD0020FFF74AFD0720FFF7E7
:102D10004DFD4FF40070FFF74FFD0820FFF784FDD5
:102D2000FFF756FD0020E7E7D8A902009F27002003
:102D300008B5FFF765FD0122014B1A7008BD00BF01
:102D40009E27002030B589B005AC84E80700FFF766
:102D500015FDC30501D5FFF7EBFF0A4D2B781BB11D
:102D60001CF020FE00232B70074B069AD3E90101CB
:102D70008DE8030002921B6894E807001CF01BFD1D
:102D800009B030BD9E27002038AA02001FB51CF0F4
:102D900009FE044630B1012206240D4B1A7020466C
:102DA00004B010BDFFF7DEFC0090FFF7DBFC0190E4
:102DB000FFF7D8FC0290FFF7D5FC03906846FFF7B9
:102DC00049FDFFF7B5FFFFF713FDFFF725FDE6E728
:102DD0009F27002005289ABF014B185C00207047F0
:102DE00044AA020030B5154B87B00293144B0390F0
:102DF000049346F611030D46059300F06DF914286F
:102E0000044616D168461CF085FE4FF0A843032205
:102E100002A95A6319601D619A63DA6B9207FCD1AB
:102E2000142C02D168461CF083FE00F089F9044698
:102E300001E00028E9D0204607B030BDC01A0020CC
:102E4000040000202DE9F04FB1B005468C46E9465C
:102E50006E4F3B9EDDF8F8E0409C07F1100AC84633
:102E6000386879680837A8E803005745C146F6D1A5
:102E70000EEB0208C8F1000909F00F09002E00F05E
:102E8000AF80774207F00F070121DDF8FCB0C4F1F5
:102E9000100ACDF810B0059144F0005106914FEAA8
:102EA0000A2101F4F85141F02101079106B96B465E
:102EB0000893002D40F09680002C00F0938004AB26
:102EC0000993002E00F0908046F000530A93002DE5
:102ED00040F08D80002C14BF0123212343EA0723F7
:102EE0000B9308A942F00053CDF830C03D980D91E6
:102EF0000E934FEA092343F041030F93109002B160
:102F00000CA9002A16BF00224FF00052412342EACA
:102F10000E021191129213933C9B3D4A149310ABF5
:102F200015933C4B0021169340F6110317933A4B2F
:102F3000002D08BF1346189314AB1993374B10227A
:102F40001A9311231B931CAB18461EF07CF9012227
:102F50001D924AF080421E9200220346239205B938
:102F6000EB46102C08BF01230DF1900A102200211E
:102F70005046CDF880B0219322941EF064F9002CC5
:102F800037D020AB002125938F4218BF534647F01E
:102F9000804226923A9A2CA88A4228922993134674
:102FA0000CBF4FF080430B46102233432B912A93E2
:102FB0001EF049F9FEB95346C8442D932CA948F098
:102FC000804318A82E93FFF70DFF30B92DB90346A3
:102FD000A34212D1002818BF2C2031B0BDE8F08FD9
:102FE000102751E701236BE747F000536EE72123D9
:102FF00074E70123C6E728ABDEE703F1C0026A44A9
:1030000012F8C02C01331043E2E700BF4AAA0200C5
:103010005CAA02001000002060AA02000400002048
:10302000F0B5C0299FB0249E4FD0B1F5807F04D069
:10303000802941D029201FB0F0BD40F2344440F235
:103040001445002E08BF2C46212710250194012489
:103050000296039404950597259F069706B102AC46
:1030600007940124089509940A9221220B940C9547
:103070000D92174A0AAC0E92164A0F94109242F61D
:1030800011021192129313941495159201AA16929B
:10309000CBB112AB1793042318931123199316ABDA
:1030A0001A901B9340F61103C9081C911AA806A98F
:1030B0001D93FFF797FEBEE7002E14BF4FF4866402
:1030C0004FF48264C0E70EABE4E70F20B3E700BF24
:1030D00064AA02001000001038B5164B5A6E42F078
:1030E00004025A66D3F8802242F00102C3F880221B
:1030F000114B5B68C3F3080343B14FF0A842D36B95
:1031000013F0430FFBD11424204638BD4FF0A843E1
:10311000DC6B14F04304FBD1084D2B681BB9042170
:10312000284602F04BFD2B68013343F000432B602F
:10313000EAE700BF0080005000ED00E0C01A002068
:10314000014B00205B68704700ED00E04FF4005237
:10315000034B00209A660322C3F86022704700BF29
:103160000090005008B5FFF70FFBC30708D5FFF725
:1031700085FB062804D00A28F5D1FFF7D9FDF2E730
:103180004FF40052034B00209A660322C3F86022DA
:1031900008BD00BF00A000501FB54FF40052164BF1
:1031A0009A660322C3F86022FFF7EEFAC30710D431
:1031B00001201CF004FC002814BF6FF092040024CE
:1031C000FFF7D0FF00280CBF20466FF0920004B03C
:1031D00010BD1022002168461EF035F86846FFF742
:1031E0002DFBDDE900321343029A1343039A134384
:1031F000DED00024E4E700BF00900050012300F07F
:103200001F02A0F506200949A0F55060400993402F
:1032100051F820201A4341F82020054951F8202078
:1032200022EA030341F82030704700BFC41A00208F
:10323000D81A00200121A0F506230F4AA3F55063F8
:103240005B0900F01F0001FA00F052F82310084358
:103250000A4942F82300D1E9003003448868034456
:10326000C868096903445B1802BFC2E90033C2E9B8
:1032700002331361704700BFD81A0020C41A00201F
:103280002DE9F04FA9B002921F46DDE932890446CC
:103290000822CDE90301414021FA02F34B4098078F
:1032A00002F1080218BF9B00202A1C44F4D181239C
:1032B000B4FBF3F303EBC313E41A784B04F50624D1
:1032C0001B7804F55064002B3CD1FDF785FF0146C7
:1032D00020B16FF0910029B0BDE8F08F4022059039
:1032E00008A81DF0B0FF4022059918A81DF0ABFFFB
:1032F0006B4EDFF8C4A1334603F10F0B102208A96F
:10330000DAF80000CDF800B0059326F0EEF90022BF
:103310000146059B103608AD914244D1CDF800B06E
:103320001022DAF8000018A926F0E8F94FF0000B97
:10333000034618AD5B4542D15A4B9E42DBD1012278
:10334000564B1A7081250026DFF86CA1A4F50623E0
:10335000554AA3F550635B0952F8232004F01F017E
:10336000CA40D2073ED4514A52F82300C84010F058
:1033700001002DD0002E08BF26468123A4F5072486
:10338000A4F2FF44B4FBF3F303EBC313E41A04F514
:103390000624013D04F55064D8D1029BD3B1CEB1CF
:1033A000349B1E6063E055F8040BCDE906230591BC
:1033B000FFF724FF069A079B05990132ACE755F801
:1033C000040B05930BF1010BFFF734FF059BB1E7ED
:1033D000029B13B96FF08B007DE7349B002E45D024
:1033E0001E6078E7B8F1000F02D00023C8F8003063
:1033F000B9F1000F02D00023C9F800304FF0100BD4
:1034000000233A462146DAF80000CDF800B014F067
:10341000D7FC70BBB8F1000F01D0C8F800B03B6812
:10342000234A93422FD1B8F1000F11D0B9F1000F08
:103430000ED04B462146DAF8000018AA14F014FD0D
:10344000B8B9D9F80030D8F800209B1AC9F8003074
:10345000D7E90223DDE90310834208BF8A428CD1F9
:10346000029B13B17B68012B15D0349B1C6000209C
:1034700031E7104B984206D01233984203D0133BE9
:103480009842E5D025E72146DAF8000014F032FD35
:103490000028DDD09EE76FF084001CE7A027002005
:1034A000006D080000710800C41A0020D81A00201E
:1034B000105D175EFFDF00F0E00A00202DE9F04FFD
:1034C00087B08246894698461646DDF840B02AB154
:1034D000002B4ED040F26C739A424DD8BBF1010FD5
:1034E0004DD8002406F110073946012005941CF040
:1034F000A3FE0546002845D021463A461DF0A3FE0E
:1035000005ABCDE9014300942B46012250464946C4
:10351000FFF7B6FE044680B110F18C0F08BF6FF0C4
:103520008D043A46002128461DF08DFE28461CF0E9
:1035300094FE204607B0BDE8F08F144BC5E902A900
:103540002B60C5F804B02EB13246414605F110009B
:103550001DF052FE0E483B462A460599006814F0BD
:1035600097FB18B90598FFF749FEDAE76FF0910469
:10357000D7E76FF08604DCE76FF09104D9E76FF0CE
:103580008504D6E76FF08C04D3E700BF105D175EAB
:10359000E00A00202DE9F0438DB08146DDE9147882
:1035A0000C4615461E469BB1B8F1000F05D16FF0D1
:1035B000860420460DB0BDE8F083002FF7D0B7F1A8
:1035C000005FF4D3C3F1005303F500439F42EED8EC
:1035D0001022002108A81DF036FE002207AB02933E
:1035E00005AB019306AB21460093484608ABCDE9F5
:1035F0000522FFF745FE04460028DAD10599DEB121
:10360000A94203D80029D2D115B1D0E70029FBD0B7
:10361000491BB14228BF3146069B0948C8F8001033
:1036200000913A46079900682B4414F0C9FB002822
:1036300018BF6FF09104BCE7A942E9D2B7E700BF19
:10364000E00A002030B58DB00C460546102200215E
:1036500008A81DF0F8FD002207AB029305AB01930B
:1036600006AB21460093284608ABCDE90522FFF7BB
:1036700007FE0446D0B9099B012B1AD0104B0799BD
:10368000186814F037FCB8B9012207980D49A0F565
:103690000623A3F550635B0900F01F05AA4051F80B
:1036A00023506A4041F82320FFF7C4FD20460DB0A7
:1036B00030BD6FF08404F9E76FF09104F6E700BFC6
:1036C000E00A0020C41A00202DE9F0438BB0174611
:1036D000DDE91545DDE913269C46DDE91738894605
:1036E00021B96FF086000BB0BDE8F083002FF8D051
:1036F0000EB9002CF5D1129909B9002AF1D10DB9F2
:10370000002BEED1B8F1000FEBD0254A944544D1FF
:103710000288B2F5105F40D14288B7EBD20FE0D3F8
:1037200022F04001802902D0B2F5807FD9D11CB9A6
:103730002046C8F80040D6E7AE421CD23219954266
:1037400019D29C42CDD83146224628461DF061FD53
:103750002E4614F00F03C4D1CDE90197CDE903360D
:10376000CDE90543CDE907540993FFF7EFFC38B1E4
:103770006FF09200B7E79C42EBD96FF08900B2E797
:1037800007AA04A901A8FFF72DF90546FFF7EAFCEF
:103790002843EDD1C8F80040A5E76FF08500A2E707
:1037A000004440042DE9F04FA9B0834617469A46DD
:1037B0000E46DDF8C890DDF8D88029B96FF0860391
:1037C000184629B0BDE8F08F002AF7D0B9F1000FF4
:1037D000F4D0349B002BF1D0B8F1000FEED00024D0
:1037E000434B0CAD93E8070085E807003C222146D7
:1037F00019A818941DF027FD3288718802F4E04062
:10380000B0F5804FDAD03B4E3B480BEA060646F057
:103810001066864265D1B1F5807F62D147F2121100
:103820008A425ED106203549BAF11F0F0A69CB687A
:1038300000FB02F209680B93CDE90C120E94BDD97E
:10384000339B402BBAD9359B1F2B4DD909F101026F
:1038500020261292402299F800300F97042B18AFBF
:10386000CDE91324CDE91572109611941794A5D1C2
:10387000FFF76CFC03460028A2D10B9B15AACDE9EB
:10388000086305AB07CA83E8070002AB12AA07CAA0
:1038900083E80700DDE910018DE803000F9B95E840
:1038A0000700FFF779F90546FFF75CFC55EA0003CE
:1038B00084D13D46349A20AE2C4603CCB4421060ED
:1038C0005160254602F10802F6D100221046B918CF
:1038D0000132412A03D12022C8F8002070E7087085
:1038E000F5E76FF085036BE76FF0890368E700BFCA
:1038F000F0A802000000FFF600000209C4A90200BF
:10390000F0B50F461D468DB000285AD0002958D07A
:10391000002A56D0002B54D00388B0F802C01946B4
:1039200003F44F44B4F5824F18BF002321F0FF0188
:10393000B1F5E24FDBB203D06FF085000DB0F0BD02
:10394000122B01D0172BF7D10CF10701B2EBD10FDD
:103950004FEAD10638D31F4A06ACBCF5807F07CAB0
:1039600084E80700E8D1122B07D11B4B1A691B68AA
:103970001344CDE90632002308930023CDE90976EC
:103980000B93FFF709FC0028D8D1FFF7DFFB0028D5
:10399000D4D1124B1149059302AB049083E8030084
:1039A0000CAB13E903008DE80300099B94E80700C2
:1039B0001BF087FE0446FFF7D5FB204307D12E609E
:1039C000BCE76FF08600B9E76FF08900B6E76FF0EB
:1039D0009200B3E7F0A80200C4A90200DFF90100D9
:1039E0002DE9F0438FB01D46DDE916C6002863D0EF
:1039F000002961D0002A5FD0002B5DD0BCF1000F00
:103A00005AD0002E58D00388B0F802E01C4603F4C8
:103A10004F47B7F5824F18BF002324F0FF00B0F5E1
:103A2000824FDBB24ED0B7F5824F4BD1122B01D073
:103A3000172B47D10EF10700B2EBD00F4FEAD00899
:103A40003AD34FEA4802571C674538D8BEF5807F05
:103A500038D1122B18BF4FF000094FF0000308BFF8
:103A60001B4CCDE9081805F1010114BF4C46D4F8F0
:103A70000C90CDE90B120A930D93FFF767FBC0B9C9
:103A8000CDE9058902AB08AA07CA83E807000EAB97
:103A900013E903008DE803000B9B94E807001BF07B
:103AA0002FFE0446FFF75EFB20430ED104232B704C
:103AB00037600FB0BDE8F0836FF08600F9E76FF074
:103AC0008900F6E76FF08500F3E76FF09200F0E70A
:103AD000C4A902002DE9F04389B00D4614461F46E3
:103AE000DDF8488020B96FF0860009B0BDE8F083AA
:103AF0000029F8D0002AF6D0B8F1000FF3D00288E0
:103B000002F44F43B3F5824F0CBF13460023DBB2E0
:103B100002D06FF08500E8E7122B01D0172BF8D107
:103B200022F0FF02B2F5E24F40D14288C8F80020EF
:103B3000002A36D1E200C8F80020D8F80020B2F5FB
:103B4000807FE6D1122B09BF384B00221A681B690F
:103B500005EB040608BFD21800231846224412F8C9
:103B600001CD16F8011D0843B1EB0C010CBF4FF05D
:103B7000FF3C4FF0000CB5420CEA030343EA01039B
:103B8000EDD10028AFD0002BADDA109B9C4249D874
:103B90002246294638461DF02FFB119B00201C6051
:103BA000A3E70732B4EBD20FC7D09CE72A78042AE8
:103BB00099D1621ED2005208B2F5807FC8F8002069
:103BC000A7D1122B05F1010318BF4FF000094FF0E8
:103BD000400205934FF000030ABF144E4E46D6F83C
:103BE0000C90CDE90623FFF7B1FA00287FF47DAFF2
:103BF000CDF80C90D8F800300733DB08029308ABFF
:103C000013E903008DE80300059B96E807001BF00D
:103C100020FE0646FFF7A6FA00287FF466AF002EC6
:103C2000B3D060E76FF089005FE700BFC4A902006E
:103C30002DE9F04F8FB00546DDE918A993461E46E1
:103C4000DDF868801C9F09B300B3B8F1000F1DD0E8
:103C5000E7B1BAF1000F02D1B9F1000F16D1284B2C
:103C600026F47E129A4247D128461BF092FF044662
:103C7000B0BB6B88BBEBD30F4FEAD30206D316F46D
:103C80007C1FC6F3054504D0102D03D96FF08604C0
:103C900026E010251B9B9D422BD80023CDE9011265
:103CA0001022CDE905930DF12809CDE9033ACDE9BC
:103CB0000823CDF81C90FFF749FA044680B907AAFB
:103CC00004A901A8FEF7A2FE0646FFF74BFA044638
:103CD00056B958B92A46494640461DF08DFA3D600E
:103CE00020460FB0BDE8F08F6FF0920400233B60D8
:103CF000F6E76FF08904F3E76FF08504F0E700BFA3
:103D00000002C0032DE9F041069F0C461646054609
:103D100010B309B302B9FBB96288B3EBD20F4FEA13
:103D2000D20819D34C22002128461DF08CFA0D4BE5
:103D300027F47E129A4212D120461BF02AFF044635
:103D400038B942463146281D1DF056FAC5F8248080
:103D50002F602046BDE8F0816FF08604F9E76FF030
:103D60008504F6E70002C0032DE9F0410E46144633
:103D70000546002840D000293ED012B90020BDE8F9
:103D8000F08103681F4823F47E13834237D1AF6B61
:103D9000E7B1C7F1100807F128004245284404D2D2
:103DA0001DF02AFA3C44AC63E8E742461DF024FAD1
:103DB0001022103C3C19AA63E0D0284605F12801E6
:103DC0001BF003FF0028DAD14644A863102C0CD95D
:103DD000671E27F00F073A46314628461BF0F5FECE
:103DE0000028CCD1E41BC9D03E442246314605F11F
:103DF00028001DF001FAD6E76FF08600BFE76FF0EC
:103E00008800BCE70002C0032DE9F04388461F4646
:103E100005468BB070B169B163B10368234923F4DF
:103E20007E1088423ED113F47C1FC3F3054604D0B4
:103E3000102E03D96FF086042AE0102696422BD864
:103E4000FFF784F9044618BBAB6B05F12802CDE9F6
:103E500001236B6A2A1DCDE904231023CDE9083024
:103E600007AB1A460390069005F13C0901A904A886
:103E7000CDF81C90FEF7EEFD0546FFF773F90446FA
:103E80006DB928B93246494640461DF0B5F93E6045
:103E900020460BB0BDE8F0836FF08904F8E76FF0BF
:103EA0009204F5E76FF08504F2E700BF0002C0035B
:103EB00007B56B46054A1068516803C36846FEF7AC
:103EC0001FF8002003B05DF804FB00BF68AA0200E1
:103ED00013B50024064A6846536F43F00103536745
:103EE00000948DF80440FDF741FF204602B010BD5C
:103EF0000040005030B58BB06C46174D0FCD0FC44D
:103F00000FCD0FC495E8030084E80300134BD3F8EA
:103F10004C21120318D4D3F85041E4B28DF8194063
:103F2000FDF742FD204480F308008DF818000C488E
:103F3000FCF730FE6846FDF753FC4FF4FA70FDF7CE
:103F4000A7FD00200BB030BD064B1C884FF6FF7359
:103F50009C4208BF8C24E1E770AA02000080E00FB9
:103F600000F049020001E00F30B5094D87B001AC07
:103F70000FCD0FC42B6801A8236019238DF80530DD
:103F8000FDF742FD6420FDF77DFD002007B030BD48
:103F900098AA02006FF00402502110B50A480B4C99
:103FA00012F0800FD3B21BBF03F00F03043BA31822
:103FB0001B1802F101020CBF83F800131976402A86
:103FC000EED1002010BD00BF00ED00E000E100E0F8
:103FD00010B504461BF026F9024B1C601BF026F9B5
:103FE000002010BDEC1A002010B51BF01BF9034B8C
:103FF0001C681BF01BF9204610BD00BFEC1A002006
:10400000034B0222186800238068194602F046BC60
:10401000080B002030B51446054687B010461BF04B
:10402000DEFE6369024683423CBFD4E903315B187C
:104030001B1A7BB10F49284603910021CDE90131BC
:10404000012304940093D4E900131AF0B7FF002071
:1040500007B030BD0122627694F82D20002AF6D0F8
:1040600084F835301321E369204698472046636A77
:104070009847ECE7154000002DE9F04788B004466A
:104080008846174699461BF0D4F88246002F7AD00E
:10409000237E03F0FF02002B00F0A28020461BF0DD
:1040A0009EFE6669B04205D1637ED4E90352154491
:1040B000AD1B01E0F9D9851BBD4228BF3D461BF071
:1040C000B8F894F82D300646002B6DD12A464046AC
:1040D00061691DF091F863692F462B44636121E00B
:1040E000037803F0FD0111295BD1216B814205D1D9
:1040F000A3F111014B424B4184F83430013F636915
:10410000216B01328B4203F1010308BF236363611A
:1041100095426069E4D1D4E90323216B13449942A9
:1041200000D122630025D4E9032361691344994235
:1041300008BF6261207A6576FCF76AFF20461BF0B3
:104140004EFE6369834232D1257694F82D30E568BE
:10415000656103B125632046636A9847214B2A466F
:104160000393002302932369216801930123207A9A
:104170000093049463681AF021FF207AFCF768FF2B
:1041800030461BF05CF85046C9F800701BF057F839
:10419000D9F80030002B0CBF1B20002008B0BDE870
:1041A000F08708F8013BAAE72F460022B0E7012379
:1041B000207A23760DF11E01FCF7B2FF9DF81E3028
:1041C000002BDAD00DF11F01207AFCF781FF9DF85A
:1041D0001F100029D1D12246207AFFF71BFFCCE720
:1041E0001746D0E715400000002808DB01234209EC
:1041F00000F01F0003FA00F0014B43F82200704763
:1042000000E100E0002809DB0122430900F01F0063
:1042100002FA00F0024A603342F82300704700BF00
:1042200000E100E070B504460568FFF7DDFE84425A
:1042300002D10020FFF7CCFE95F93600FFF7E2FF30
:1042400095F93630002B0DDB01215A0903F01F03CD
:1042500001FA03F31849203241F82230BFF34F8F9F
:10426000BFF36F8F95F93700FFF7CCFF95F9373023
:10427000002B0DDB01215A0903F01F0301FA03F3A0
:104280000D49203241F82230BFF34F8FBFF36F8FBB
:10429000287AFCF7FDFE287AFCF760FEFCF73CFE6E
:1042A00000232846C4E90033C4E90433A360AB6AA1
:1042B000BDE87040184700BF00E100E02DE9F04183
:1042C0000C461546064686B04022002120461F4671
:1042D0001CF0B9FF95E8030000232A692376EB68F8
:1042E00084E80300C4E904232A7DE36084F82C20D9
:1042F000AA7D2363012384F8343084F835300C9B85
:1043000084F82D2023620D9BE76163620E9BA362FC
:104310002B7A84F836306B7A84F837302D4B346042
:1043200073602D4BB3602D4B33612D4B73612D4B5F
:10433000F360FCF739FE38B12B4B984204D01024BF
:10434000204606B0BDE8F081002104F10800FCF72A
:10435000B3FD07460028F2D14FF00108234B33622A
:10436000234B84F83C80B361224BF3619DF84030CD
:1043700084F8390084F83B309DF83C30204684F8BE
:104380003A30697D84F838801BF039FD95F90900D1
:10439000FFF738FF95F90900FFF726FF164B049445
:1043A000CDE902732369CDE900836368E26821687F
:1043B000207A1AF003FE04460028C0D195F90800BF
:1043C000FFF720FF95F90800FFF70EFF3046FFF7D3
:1043D000FFFDB5E74FFE010079400000CDFD010073
:1043E000D3FD010025420000038000F0A3FD010081
:1043F000FFFD0100D9FD0100154000002DE9F0414D
:1044000001271C46594B86B00293594B0C9D0193D2
:10441000584B904600930A46CDE903772946564B00
:10442000FFF74CFF064600287BD1236839462B64F2
:1044300063683A206B64637A85F84930237A85F89B
:104440004830E37A85F84B30A37A85F84A30637BAD
:1044500085F84D30237B85F84C30E37B85F84F3071
:10446000A37B85F84E30FDF7B1F83B460422617A14
:10447000207AFDF783FD3B460222E17AA07AFDF720
:104480007DFD39466068FDF7A1F888F80060414677
:104490002068FDF79FFF1422637C5B0103F1A043BA
:1044A00003F57033C3F81C26617A227A42EA01428E
:1044B000C3F83426E17AA27A42EA0142C3F82C26F4
:1044C00085F8506098F81930032B4DD8DFE803F0D9
:1044D0001A022D470123002785F8503000230222BD
:1044E000617B207BFDF74AFD637B227B617C42EA96
:1044F0000342224B49015A500422236803F580539A
:10450000DA65AFB9237A2A6C85F84830637A0521D9
:1045100085F84930D36C206843F00403D3641AF063
:10452000B2FE304606B0BDE8F081022385F8503077
:1045300000230422E17BA07BFDF720FD022741F24E
:104540001C61627C0E4B03EB42104750E07BA17B69
:10455000B13241EA004103EB42139960D2E70323F1
:10456000012785F85030B9E72326DAE779FF010003
:104570006DFF010005000200F9FF010024D6035081
:1045800000C00350BFF35F8F074B5A6A22F480329A
:104590005A62D3F8942022F00102C3F89420BFF3AA
:1045A0004F8FBFF36F8F704700ED00E070B5264866
:1045B000264CFFF7E7FF844208BF4FF08043244AB0
:1045C00018BF20F01F03D2F8C01018BF203B21F005
:1045D000FF0141F0A001B3F1005FC2F8C0100CD39D
:1045E0001C4D1D4E296843F00103C2F8981001319B
:1045F000C2F89C60C2F8A0302960844210D01548EF
:10460000164B0268124923F01F0343F00303C1F85D
:104610009820C1F89C30124B0132C1F8A0300260E2
:10462000BFF35F8F05220A4BC3F894205A6A42F405
:1046300080325A62BFF34F8FBFF36F8FBFF34F8F3C
:10464000BFF36F8F70BD00BFEC0C0020C40E0020C4
:1046500000ED00E0F01A002003000020E30E00202F
:10466000E1FFFF3F10B51446FFF78CFF1F2C24D944
:104670001C4A1D4CD2F8C03023F47F4343F48073AE
:10468000C2F8C030C2061CBF20F01F002030CB068D
:10469000144A236818BF21F01F0120F01F0021F0E9
:1046A0001F01C2F8983040F0030041F003010133CC
:1046B000C2F89C00C2F8A0102360BFF35F8F0522F0
:1046C000084BC3F894205A6A42F480325A62BFF30E
:1046D0004F8FBFF36F8FBFF34F8FBFF36F8F0020EC
:1046E00010BD00BF00ED00E0F01A0020BFF34F8FB7
:1046F0000549064BCA6802F4E0621343CB60BFF37E
:104700004F8F00BFFDE700BF00ED00E00400FA0599
:10471000054B1A782AB95B78002B14BF02200320BE
:1047200070470120704700BFA92700200329F8B572
:1047300098BF124B05460E468CBF00245C5C0328D4
:1047400005D8DFE800F002080B0E44F002040C4B21
:104750001F684FB9F8BD44F00804F8E744F020049E
:10476000F5E744F08004F2E77B681A68144203D04E
:10477000314628465B6898473F68EAE7ACAA0200E2
:10478000181B002038B5104D2B78ABB10F4C237897
:104790001BB100F05DFB0023237000201BF09EFC8A
:1047A0000B4C50B100F0A4FB0023012120782B70AA
:1047B000FFF7BCFF0123237038BD0122054B1A709F
:1047C0002278054B1A70F7E7A8270020A3270020BE
:1047D000A1270020A7270020AE27002010B51AF03F
:1047E00021FD064B04461B781BB1BDE810401AF0B2
:1047F0001DBDFFF7C7FF2046F7E700BFA227002037
:10480000002814BF0121FF21074A13780B441370BD
:1048100008D0064B1B78012B04D9054B1B780BB92C
:10482000FFF7B0BF704700BFA9270020A1270020D5
:10483000A727002070B51AF0F5FC124E0546337814
:104840009BB900F073FC044620B128461AF0EEFC38
:10485000204670BD0C481AF052FB00F0CDFE0B4B09
:104860001C6000F027FD0A4B186000F009FA1BF0ED
:1048700037FC084B002418600123284633701AF0D7
:10488000D5FCE5E7A4270020181B0020201B0020F2
:104890001C1B0020141B002000292DE9F34114BF2C
:1048A0000121FF21254A00F1FF30135C0B44135412
:1048B0003AD0234E3178012936D9FFF729FF012854
:1048C000044634D81F4F1AF0ADFC3B781BB31E4D85
:1048D0002B781BB901222A701C4A1370DFF87080F4
:1048E00098F8003033B1019000F0B2FA002301983B
:1048F00088F800301AF09AFC01201BF0EFFB1AF048
:1049000091FC2B782BB1019000F0F2FA0023019872
:104910002B7000233B701AF089FC3078A04203D042
:104920002146FFF703FF347002B0BDE8F081032990
:10493000F3D10228F1D11BF0D7FBEEE7A927002025
:10494000A1270020A8270020A2270020A7270020B9
:10495000A327002010B504461AF064FC002C14BFF5
:104960000121FF21064A13780B44DBB21370B3FA1E
:1049700083F3BDE81040034A5B0913701AF056BC7C
:10498000AC270020AB27002068B51AF04BFC094B80
:1049900006461B78012B04D81AF048FC002528464F
:1049A00068BD054B1D6800F0D7FA054430461AF083
:1049B0003DFCF4E7A1270020201B002038B5416012
:1049C00004461AF02FFC0546214604481AF09AFACC
:1049D0002846BDE838401AF029BC00BF181B00204B
:1049E000054B1B685843054B00F5742000F23F202F
:1049F000B0FBF3F0704700BF1C1B002040420F00CB
:104A00002DE9FF47EFF3108672B600E000BF1AF001
:104A1000ECF9002800F09B80704D714F2B7823B18A
:104A20000020FFF7EDFE00232B70FFF771FE044618
:104A3000002800F09380841EE4B2012C40F296809E
:104A4000FFF766FE0128804604D9664B1B780BB938
:104A50001BF042FB644CDFF8B0912078DFF8ACA18A
:104A600040450AD0002389F800309AF8003013B985
:104A70004146FFF75BFE84F8008099F800303BB1B7
:104A80002378022B04D1002389F8003025F0CEF9D9
:104A9000B8F1010F0FD9DFF84C8198F8003053B905
:104AA000524B1B7823B900F0CDF90122504B1A70FC
:104AB000012388F80030207800F038FA9AF80030A6
:104AC00013B14C4B1B78237000E000BF06B962B6EF
:104AD000EFF3108672B6484B1A7852B100221A7062
:104AE000444B20781B78984203D101212170FFF7B5
:104AF0001DFE384600F054FB1AF082F9804600286B
:104B00008CD1384F89F800003B789BB1DFF8E090FA
:104B10008AF8000099F800301BB100F099F989F883
:104B2000008000201BF0DAFA00284ED000F0E0F9F7
:104B300000233B702B7823B10020FFF761FE002398
:104B40002B7000212078FFF7F1FD0023237000E097
:104B500000BF06B962B604B0BDE8F0872B78002B21
:104B60003FF46EAFFFF74CFE2C7069E7002003A9FD
:104B700000F05AFB044600287FF462AF1F4B039AF3
:104B80001B689A4205D80120FFF73AFE01232B70DB
:104B900056E71B4BD3F8008000F0DEF9039B8044FE
:104BA0009845F0D200F0F0F900280CBF0023042350
:104BB000039943F00203CDE9004338462346114AE6
:104BC000A1EB08011BF091FA3AE7012000F0AEF9E1
:104BD00006B962B6EFF3108672B6A2E7AD270020E1
:104BE000F41A0020A8270020A1270020AC270020CD
:104BF000A3270020AE270020A6270020141B00209A
:104C0000201B0020DD470000AB270020A727002045
:104C100010B51AF007FB0022044B1C781A701AF02A
:104C200005FB00F02FFC2043C0B210BDA5270020DB
:104C300073B5114E04463378834212D000238DF8A9
:104C4000043080B102238DF8053001A8FDF73EF84D
:104C50000A4D402054B1FFF7C3FE2B68181A286094
:104C6000347002B070BD8DF80500EEE7FFF7B8FEB6
:104C70002B681844F3E700BFD10C00205C1B002018
:104C800073B5002401A88DF80440FDF7D1F8204643
:104C90004FF40024FFF7CCFF3D493E4B0A6F3E48DE
:104CA00002F007021A60D1F82031D1F824114466CD
:104CB0004FF40034446600F598308069374DC0F3F6
:104CC0004000032A01F00701287058D003F00303C5
:104CD000981E43424341022908BF43F00103304C70
:104CE0004FF4C8702370FFF77BFE2E4B2E4A1860DE
:104CF0000A2316682D49013B13F0FF0341F8040B0A
:104D0000F9D100EBC003304418442B781060284DD3
:104D10006BB323781E4A3BB9D2F8003103F003038A
:104D2000591E4B424B412370D2F8003103F003036C
:104D3000022B26D0032B27D0012B18D1FBF724FF01
:104D4000A8B11C4B411EDC680023024608461946E8
:104D5000C4F30B04184E013404EB8404E4FB060195
:104D600001F0CCFAFFF73CFE2B68184428601F20A6
:104D7000FFF736FE2B681844286002B070BD01238F
:104D8000A9E7FBF71BFFDBE71AF0B1F8D8E700BF94
:104D900000800050241B002000900050B02700200D
:104DA000B3270020581B00202C1B0020301B0020A4
:104DB0005C1B002000C0015040420F00074B1A78D6
:104DC00052B100221A70064A136F23F0070343F012
:104DD00001031367FBF7C2BE704700BFB127002075
:104DE0000080005008B5124B1B78FBB102201BF06D
:104DF000DDF9D8B100F04AFAC0B10E4B9A6DD2037A
:104E000002D5DB6D9B0711D401220B4B1A701BF0EE
:104E1000ACF90A4B0A4A1860136F23F0070343F0FA
:104E200003031367BDE80840FBF798BE08BD00BF49
:104E3000B327002000C00050B2270020281B00200C
:104E4000008000500122014B1A707047B1270020EA
:104E5000F8B51E4B1B78002B36D01D4C23789BB920
:104E60001C4B9A6DD20302D5DB6D9B072CD41BF033
:104E70007CF9194B194A1860136F23F0070343F0AC
:104E800003031367FBF76AFE1BF06FF9124B144D17
:104E90001B68144EC01A2B78134F56F8232046F87F
:104EA0002300111A3A681148521A0A213A6009324D
:104EB000B2FBF1F20133DBB20260B3FBF1F201FBB2
:104EC00012332B7000232370F8BD00BFB3270020DE
:104ED000B227002000C00050281B00200080005096
:104EE000AF270020301B00202C1B0020581B002067
:104EF00008B51AF0ABF9094A0949136F096823F09C
:104F000007030B431367074B1B7813B10122064BB2
:104F10009A62BDE80840FBF721BE00BF0080005048
:104F2000241B0020B327002000E0005002280AD0F4
:104F300003280BD001280CD1064A136923F004037F
:104F4000136130BF70470020FCF7CCBE0020FCF797
:104F5000EDBE704700ED00E0054B1B781BB1054B23
:104F60001B6803EBD303044A10681844704700BF62
:104F7000B3270020581B00205C1B00200122014B9E
:104F80001A707047B3270020014B1878704700BF94
:104F9000B327002010B51BF0F6F80A4C0A4B19682D
:104FA0002368C31A01B10BB9206010BD4A699A4247
:104FB0003ABF9B1A0022D21A4A6128BF002389688F
:104FC000F0E700BF601B00206C1B0020C38870B599
:104FD00004460D463BB9FFF7D7FC8542064602D290
:104FE0001BF06DF835460F4965610B68ABB90C6075
:104FF000A36011E0AD1A9A68184665612AB113469C
:105000005A69AA42F6D950B11A4613468460A36081
:1050100013B15969491B596170BD0020F0E70C605C
:10502000F5E700BF6C1B002038B5134D2B685B699A
:1050300093B1124A022014681C441BF0ABF82046BE
:1050400000F06EFA00230E492A680B70D0888007A2
:1050500009D501230B7038BD02201BF09BF80220FC
:1050600000F0A8FAEEE79268002AF4D050690344F1
:10507000012BEBD9EFE700BF6C1B0020601B002069
:10508000B527002070B516469DF81420C0E90336F8
:105090000271049ABDF818300260002204460D46E1
:1050A0008260C38006BB1BF06EF82844A0613DB946
:1050B000E368656113B120462168984796B135468B
:1050C0001AF0B0F80646FFF765FF29462046FFF7BD
:1050D0007DFF074B1B68A34201D1FFF7A5FF3046B8
:1050E0001AF0A4F8002070BD1BF04DF83044DDE745
:1050F0006C1B002000220C490B687BB183420AD153
:1051000083687AB1936083681BB15A6941690A4424
:105110005A61002070471A469B68EEE70028EFD0DE
:10512000022070470B60EEE76C1B002070B51AF090
:1051300080F8144E05463478FCB9134B1C60134BB1
:105140001C60134B1C8000F0A9F901201BF022F811
:105150001BF03BF80F4B0246186020B928461AF0A6
:105160006EF8232070BD234640F2E7310A4801F073
:10517000C5F80A4B18600123337028461AF05FF80F
:105180000020EFE7B42700206C1B0020601B0020EC
:1051900028270020681B002018FCFFFF641B00204C
:1051A0002DE9F0410546F8B11AF03CF80F4F0646DC
:1051B000FFF7F0FE2846D7F80080FFF79BFF044674
:1051C00028B130461AF032F82046BDE8F081A845F3
:1051D0003B6803D123B1FFF727FFF2E7002BF0D1A3
:1051E000022000F0CFF9ECE72224EDE76C1B002051
:1051F00038B50C46054698B191B100230B701AF0F2
:1052000018F80121074B1B680BB122781AB11AF06C
:1052100016F8002038BDAB4214BF9B682170F3E73D
:105220002220F7E76C1B00202DE9F0410746884655
:1052300019F0FFFF00260546124B1C6824B92846CA
:1052400019F0FDFF1B2016E063691E44E388BB4292
:1052500015D11AF098FF0C4C2368C01AB0420CD23A
:105260001AF091FF22683244121A2846C8F800202A
:1052700019F0E5FF0020BDE8F0810022F5E7A46801
:10528000DCE700BF6C1B0020601B002008B5074B4B
:10529000187848B11AF069FF054B1B689B69C01A62
:1052A00002288CBF0020012008BD00BFB5270020C8
:1052B0006C1B0020014B1868704700BF681B002062
:1052C0000C4B70B51B680D46834211D340F2E73199
:1052D00000248C462146084B4FF47A721E68002346
:1052E000E0FB06C1604601F009F82860204670BD69
:1052F0002120FCE7641B0020681B00200F4B10B529
:105300001A689AB14FF47A71531E1342A0FB01013F
:105310000ED1B2FA82F2C2F11F04531CD243E04014
:1053200001FA03F3184321FA02F20243104610BDBA
:10533000002300F0E3FF0246F8E700BF681B0020EF
:10534000C2072DE9F04704460BD54B4A13880133B9
:105350009BB21380FFF71EFE484B1B680BB1FFF793
:1053600063FEA30740F1858019F063FF4FF0000949
:1053700080464D46FFF70EFE4F46404E34680CB156
:1053800063698BB100223E4B012D1A7003D119F0D5
:10539000020F18BF1D70002C5BD0FFF745FE404682
:1053A000BDE8F04719F04BBF23461A7921799142A5
:1053B00088BF1C469B6813B15A69002AF5D0404645
:1053C00019F03DFFD4F81090B9F1000F45D01AF054
:1053D000DAFEA269A0EB02084FEAE873C14577EB59
:1053E00003033BDA23691344A36101232269CAB191
:1053F000C3B9A38BB9EB080833B1E28B13449BB25A
:10540000B3F57A7F1CD2E38319F013FF814641463E
:105410002046FFF7DBFDA369226948461344A361D8
:1054200019F00DFFE368B4F80690013513B120467A
:105430002168984719F0FDFE8046FFF7ABFD9DE718
:10544000A3F57A73E383A36918F1FF38013BA361E5
:10545000DAE7022000F096F8A1E7C84619F0E9FE65
:1054600082462046FFF746FE504619F0E8FE00232C
:10547000BCE7BDE8F08700BF282700206C1B002098
:10548000B627002010B519F0D4FE034B1C7819F094
:10549000D6FE204610BD00BFB62700201FB5002451
:1054A0001C4B012118689A880290D3F806009B7A59
:1054B00000903E20ADF80C208DF80430FCF786F803
:1054C00002A88DF808408DF80C40FCF7CDFE694627
:1054D00001208DF80040FCF78BFE4FF0B04240F207
:1054E000FF31936923F47F7323F0030393610A4B25
:1054F0005961936A13F00803FBD113620120FCF792
:1055000091FE4FF48052054BC3F880211A6004B01D
:1055100010BD00BFB0AA02000020005800E100E06A
:1055200010B5044619F07EFE4FF0B042936A190799
:10553000FCD4136A116C5269520604D4CA1A032AA5
:1055400001D899420ED1E21A022A98BFDC1CB4F1AC
:10555000FF3F38BF013C4FF0B0431C649A6942F0F2
:1055600040029A6119F062FE054A13783BB14FF090
:10557000B041CB6B43F00203CB630023137010BD2B
:10558000D20C0020820700F001030AD50121084A4D
:1055900043F0400311704FF0B041CA6B22F0030298
:1055A000CA634FF0B0418A6922EA03038B617047F6
:1055B000D20C0020830742BF4022014B5A61704742
:1055C0000010005810B519F034FE4FF0B0430446F7
:1055D0005B695A06074A03F0010003F0510348BF14
:1055E00040F002005361FFF7ABFE2046BDE81040DB
:1055F00019F025BE002000580A4B10B5D3F84032F0
:1056000003F00303013B012B0BD819F00BFE0446FA
:1056100001210220FFF740F92046BDE8104019F0B3
:1056200005BE10BD00800050024A0349034801F046
:105630006DBF00BFBCAA020008AB0200E0AA0200D6
:105640000A4619B1024B00211B681847704700BF7A
:10565000040B00200E4B0340B3F1607F06D1B1F57F
:10566000885F14BF6FF0860000207047B3F1707F31
:105670000BD101F4E043B3F5005F06D111F4E06F04
:105680000CBF6FF08600002070476FF086007047F7
:105690000000C07F8A42F8B507460D4600F0218120
:1056A0009B4822F0FF01814210D09A4C22F4FF73F4
:1056B00023F00103A34209D0974B994206D09749A2
:1056C00022F47F7323F003038B4223D125F0FF01E3
:1056D000814210D08F4825F4FF7323F001038342E9
:1056E00009D08D4B994206D08C4925F47F7323F065
:1056F00003038B420ED115F0FF030BD0884943F012
:1057000000738B4206D16A4032F0FF030CBF0120C8
:105710000020F8BD05F0FE43B3F1A06F17D102F0F1
:10572000FE43B3F1A06F40F0DE8082EA050333F45C
:105730007E1340F0D88015F40040EAD0C5F3054050
:10574000C2F3054290428CBF00200120E1E7B3F193
:10575000407F40F0B38002F0FE43B3F1407F40F061
:10576000C28082EA050333F47E1640F0BC803946DD
:105770002846FFF76FFF002840F0B580694C12F40F
:105780007C1C04EA020438D0B4F1607FC2F3054CFB
:105790007AD16549D3B243F000738B4278D003F1DC
:1057A0007E410439012975D960498B4276D0013197
:1057B0008B4275D001318B4274D001318B426BD05A
:1057C00001318B426AD001318B4269D003318B4267
:1057D00064D001318B4263D001318B4262D0013100
:1057E0008B4208BF402615F47C1FC5F305435BD1EF
:1057F000664514BF002001208BE7B4F1607F2BD1F8
:105800004949D3B243F000738B426ED003F17E411D
:10581000043901296CD945498B426FD001318B4243
:105820006FD001318B426FD001318B4263D0013197
:105830008B4263D001318B4263D003318B425DD008
:1058400001318B425DD001318B425DD001318B4201
:1058500008BF4FF0400C9CE7B4F1707FC3D107F450
:10586000E043B3F5005F05D14FF0010CC7F302230D
:105870000CFA03FC07F4E043B3F5005FB3D1012653
:10588000C7F302239E40AEE7B4F1707FABD1F1E7DE
:105890001026A8E71426A6E74026A4E71C26A2E7C0
:1058A0002026A0E730269EE712F47C1F01D1B342E8
:1058B00017D02A047FF52DAF634544E7B3F1106F8D
:1058C00011D125F01F6323F4702363B902F0FE4366
:1058D000B3F1106F07D11648104040F01060A84295
:1058E00087E7012015E7002013E74FF0100C50E781
:1058F0004FF0140C4DE74FF0400C4AE74FF01C0CF2
:1059000047E74FF0200C44E74FF0300C41E700BF71
:10591000001300060002000600090006000400064D
:10592000FF0000020000C07F030000020800000228
:105930000000FFF62DE9F8431746002288461C4672
:1059400000F0BCFA0546002859D1D8F80060B6F836
:10595000009009F4E043B3F5804FF36808BF27F0E7
:10596000010737EA030342D1002C48D02E4A24F025
:10597000FF03934211D02D4924F4FF7222F001025B
:105980008A420AD02A4A934207D024F47F7222F036
:10599000030201F500718A4234D114F0FF0231D0C4
:1059A00021498B4211D0214824F4FF7121F00101DB
:1059B00081420AD01E498B4207D024F47F7323F022
:1059C0000303A1F5A0618B4204D142F00073194A90
:1059D00093421ED0224648463169FFF75BFE0746D8
:1059E00068B9224648467169FFF754FED0B96FF096
:1059F000840500233046C8F800301BF0E1FA284641
:105A0000BDE8F88304F0FE43B3F1407F04D12304E2
:105A1000E0D56FF08605ECE7B3F1A06FF7D0054B4A
:105A20009C42D6E73D46EAE7001300060002000666
:105A300000090006FF00000200F0FE43B3F1407FC2
:105A400070B505460E4602D06FF0860070BDFFF7B8
:105A500001FE0028FAD115F47C1F05D0C5F30543DB
:105A6000032B13700DD86BE04D4B2B40B3F1607FCF
:105A700069D14C49EBB243F000738B4231D1102312
:105A80001370474C2C40B4F1607F6AD14549EAB2AB
:105A900042F000728A4279D002F17E410439012934
:105AA00076D941498A4275D001318A4274D0013198
:105AB0008A4273D001318A4211D001318A4269D0C1
:105AC00001318A4268D003318A4263D001318A426F
:105AD00062D001318A4261D001318A42B4D1402181
